{
  "contractName": "Tipping",
  "abi": [
    {
      "inputs": [
        {
          "name": "_tumOracle",
          "type": "address"
        }
      ],
      "payable": false,
      "stateMutability": "nonpayable",
      "type": "constructor"
    },
    {
      "anonymous": false,
      "inputs": [
        {
          "indexed": false,
          "name": "course",
          "type": "string"
        },
        {
          "indexed": false,
          "name": "group",
          "type": "uint8"
        },
        {
          "indexed": false,
          "name": "newTotal",
          "type": "uint256"
        }
      ],
      "name": "PayedIn",
      "type": "event"
    },
    {
      "constant": false,
      "inputs": [
        {
          "name": "_tutor",
          "type": "address"
        },
        {
          "name": "_course",
          "type": "string"
        },
        {
          "name": "_group",
          "type": "uint8"
        },
        {
          "name": "_gradeGoal",
          "type": "uint8"
        }
      ],
      "name": "newTutorGroup",
      "outputs": [],
      "payable": false,
      "stateMutability": "nonpayable",
      "type": "function"
    },
    {
      "constant": false,
      "inputs": [
        {
          "name": "_course",
          "type": "string"
        },
        {
          "name": "_group",
          "type": "uint8"
        }
      ],
      "name": "payIn",
      "outputs": [],
      "payable": true,
      "stateMutability": "payable",
      "type": "function"
    },
    {
      "constant": false,
      "inputs": [
        {
          "name": "_course",
          "type": "string"
        },
        {
          "name": "_group",
          "type": "uint8"
        }
      ],
      "name": "resolve",
      "outputs": [],
      "payable": false,
      "stateMutability": "nonpayable",
      "type": "function"
    }
  ],
  "bytecode": "0x608060405234801561001057600080fd5b5060405160208061098783398101806040528101908080519060200190929190505050806000806101000a81548173ffffffffffffffffffffffffffffffffffffffff021916908373ffffffffffffffffffffffffffffffffffffffff16021790555050610904806100836000396000f300608060405260043610610057576000357c0100000000000000000000000000000000000000000000000000000000900463ffffffff168063375a5d711461005c5780634f125542146100ff57806364c6148714610168575b600080fd5b34801561006857600080fd5b506100fd600480360381019080803573ffffffffffffffffffffffffffffffffffffffff169060200190929190803590602001908201803590602001908080601f0160208091040260200160405190810160405280939291908181526020018383808284378201915050505050509192919290803560ff169060200190929190803560ff1690602001909291905050506101de565b005b610166600480360381019080803590602001908201803590602001908080601f0160208091040260200160405190810160405280939291908181526020018383808284378201915050505050509192919290803560ff169060200190929190505050610310565b005b34801561017457600080fd5b506101dc600480360381019080803590602001908201803590602001908080601f0160208091040260200160405190810160405280939291908181526020018383808284378201915050505050509192919290803560ff169060200190929190505050610504565b005b60006001846040518082805190602001908083835b60208310151561021857805182526020820191506020810190506020830392506101f3565b6001836020036101000a038019825116818451168082178552505050505050905001915050908152602001604051809103902060008460ff1660ff1681526020019081526020016000209050848160000160006101000a81548173ffffffffffffffffffffffffffffffffffffffff021916908373ffffffffffffffffffffffffffffffffffffffff160217905550818160000160146101000a81548160ff021916908360ff1602179055506000816001018190555060008160020160006101000a81548160ff021916908360ff16021790555060008160040160006101000a81548160ff0219169083151502179055505050505050565b6000806001846040518082805190602001908083835b60208310151561034b5780518252602082019150602081019050602083039250610326565b6001836020036101000a038019825116818451168082178552505050505050905001915050908152602001604051809103902060008460ff1660ff168152602001908152602001600020915081600301600083600201600081819054906101000a900460ff168092919060010191906101000a81548160ff021916908360ff16021790555060ff1660ff1681526020019081526020016000209050338160000160006101000a81548173ffffffffffffffffffffffffffffffffffffffff021916908373ffffffffffffffffffffffffffffffffffffffff160217905550348160010181905550806001015482600101600082825401925050819055507f794dcc64522d572dc1b23f113fe9f4b9fb32596a5a4cdc6a5d76b5d137eb78208484846001015460405180806020018460ff1660ff168152602001838152602001828103825285818151815260200191508051906020019080838360005b838110156104c25780820151818401526020810190506104a7565b50505050905090810190601f1680156104ef5780820380516001836020036101000a031916815260200191505b5094505050505060405180910390a150505050565b60008060008060006001876040518082805190602001908083835b602083101515610544578051825260208201915060208101905060208303925061051f565b6001836020036101000a038019825116818451168082178552505050505050905001915050908152602001604051809103902060008760ff1660ff1681526020019081526020016000209450600015158560040160009054906101000a900460ff16151514151561061d576040517f08c379a00000000000000000000000000000000000000000000000000000000081526004018080602001828103825260168152602001807f47726f757020616c7265616479207265736f6c7665640000000000000000000081525060200191505060405180910390fd5b6000809054906101000a900473ffffffffffffffffffffffffffffffffffffffff1693508373ffffffffffffffffffffffffffffffffffffffff16633d8f959b88886040518363ffffffff167c010000000000000000000000000000000000000000000000000000000002815260040180806020018360ff1660ff168152602001828103825284818151815260200191508051906020019080838360005b838110156106d65780820151818401526020810190506106bb565b50505050905090810190601f1680156107035780820380516001836020036101000a031916815260200191505b509350505050602060405180830381600087803b15801561072357600080fd5b505af1158015610737573d6000803e3d6000fd5b505050506040513d602081101561074d57600080fd5b810190808051906020019092919050505092508460000160149054906101000a900460ff1660ff168360ff161115156107f4578460000160009054906101000a900473ffffffffffffffffffffffffffffffffffffffff1673ffffffffffffffffffffffffffffffffffffffff166108fc86600101549081150290604051600060405180830381858888f193505050501580156107ee573d6000803e3d6000fd5b506108b2565b600091505b8460020160009054906101000a900460ff1660ff168260ff1610156108b1578460030160008360ff1660ff16815260200190815260200160002090508060000160009054906101000a900473ffffffffffffffffffffffffffffffffffffffff1673ffffffffffffffffffffffffffffffffffffffff166108fc82600101549081150290604051600060405180830381858888f193505050501580156108a3573d6000803e3d6000fd5b5081806001019250506107f9565b5b60018560040160006101000a81548160ff021916908315150217905550505050505050505600a165627a7a7230582026e2ab5e53193fbb44ddf3f8a83a5f72490eb444e0e590905c7daf4d4225551c0029",
  "source": "pragma solidity ^0.4.18;\n\nimport \"./TUMOracle.sol\";\n\ncontract Tipping {\n  \n    // interface for the grade results\n    address tumOracle;\n\n    mapping(string => mapping(uint8 => TutorGroup)) tutorGroups;\n    \n    constructor (address _tumOracle) public {\n        tumOracle = _tumOracle;\n    }\n\n    struct Contribution {\n        address addr; // address of funder/student\n        uint amount; // amount contributed\n    }\n\n    struct TutorGroup {\n        address tutor; // address to be paid out\n        uint8 gradeGoal; // grade threshold\n\n        uint amount; // total amount of funding\n\n        uint8 nContributions;\n        mapping(uint8 => Contribution) contributions;\n\n        bool resolved; // each tutor group can only be PAID/RESOLVED once.\n    }\n\n    event PayedIn(string course, uint8 group, uint newTotal);\n\n    function newTutorGroup(address _tutor, string _course, uint8 _group, uint8 _gradeGoal) public {\n        TutorGroup storage tg = tutorGroups[_course][_group];\n\t// TODO check that not exist\n        tg.tutor = _tutor;\n        tg.gradeGoal = _gradeGoal;\n        tg.amount = 0;\n        tg.nContributions = 0;\n        tg.resolved = false;\n    }\n\n    function payIn(string _course, uint8 _group) public payable {\n        TutorGroup storage t = tutorGroups[_course][_group];\n        Contribution storage c = t.contributions[t.nContributions++];\n\tc.addr = msg.sender;\n        c.amount = msg.value;\n\tt.amount += c.amount;\n        emit PayedIn(_course, _group, t.amount);\n    }\n\n    function resolve(string _course, uint8 _group) public {\n        TutorGroup storage t = tutorGroups[_course][_group];\n        require (\n            t.resolved == false,\n            \"Group already resolved\"    \n        );\n\n        TUMOracle oracle = TUMOracle(tumOracle);\n        uint8 grade = oracle.getGrade(_course, _group);\n        if (grade <= t.gradeGoal) {\n            t.tutor.transfer(t.amount); // send the money to tutor\n        } else {\n            for (uint8 i = 0; i < t.nContributions; i++) {\n                Contribution storage s = t.contributions[i];\n                s.addr.transfer(s.amount);\n            }\n        }\n\n        t.resolved = true; // paid \n    }\n\n}\n",
  "sourcePath": "/home/anixon604/dev/ethereum-tutoring-tipper/contracts/Tipping.sol",
  "compiler": {
    "name": "solc",
    "version": "0.4.25+commit.59dbf8f1.Emscripten.clang"
  },
  "schemaVersion": "2.0.2",
  "updatedAt": "2019-01-06T04:50:22.069Z"
}