{
  "contractName": "TUMOracle",
  "abi": [
    {
      "constant": true,
      "inputs": [],
      "name": "owner",
      "outputs": [
        {
          "name": "",
          "type": "address"
        }
      ],
      "payable": false,
      "stateMutability": "view",
      "type": "function"
    },
    {
      "inputs": [],
      "payable": false,
      "stateMutability": "nonpayable",
      "type": "constructor"
    },
    {
      "constant": false,
      "inputs": [
        {
          "name": "courseId",
          "type": "string"
        },
        {
          "name": "groupId",
          "type": "uint8"
        },
        {
          "name": "grade",
          "type": "uint8"
        }
      ],
      "name": "addGrade",
      "outputs": [],
      "payable": false,
      "stateMutability": "nonpayable",
      "type": "function"
    },
    {
      "constant": true,
      "inputs": [
        {
          "name": "courseId",
          "type": "string"
        },
        {
          "name": "groupId",
          "type": "uint8"
        }
      ],
      "name": "getGrade",
      "outputs": [
        {
          "name": "",
          "type": "uint8"
        }
      ],
      "payable": false,
      "stateMutability": "view",
      "type": "function"
    }
  ],
  "bytecode": "0x608060405234801561001057600080fd5b50336000806101000a81548173ffffffffffffffffffffffffffffffffffffffff021916908373ffffffffffffffffffffffffffffffffffffffff1602179055506103e6806100606000396000f300608060405260043610610057576000357c0100000000000000000000000000000000000000000000000000000000900463ffffffff1680633c47c15e1461005c5780633d8f959b146100df5780638da5cb5b1461016f575b600080fd5b34801561006857600080fd5b506100dd600480360381019080803590602001908201803590602001908080601f0160208091040260200160405190810160405280939291908181526020018383808284378201915050505050509192919290803560ff169060200190929190803560ff1690602001909291905050506101c6565b005b3480156100eb57600080fd5b50610153600480360381019080803590602001908201803590602001908080601f0160208091040260200160405190810160405280939291908181526020018383808284378201915050505050509192919290803560ff1690602001909291905050506102e4565b604051808260ff1660ff16815260200191505060405180910390f35b34801561017b57600080fd5b50610184610395565b604051808273ffffffffffffffffffffffffffffffffffffffff1673ffffffffffffffffffffffffffffffffffffffff16815260200191505060405180910390f35b6000809054906101000a900473ffffffffffffffffffffffffffffffffffffffff1673ffffffffffffffffffffffffffffffffffffffff163373ffffffffffffffffffffffffffffffffffffffff1614151561022157600080fd5b600a8160ff1610158015610239575060328160ff1611155b151561024457600080fd5b806001846040518082805190602001908083835b60208310151561027d5780518252602082019150602081019050602083039250610258565b6001836020036101000a038019825116818451168082178552505050505050905001915050908152602001604051809103902060008460ff1660ff16815260200190815260200160002060006101000a81548160ff021916908360ff160217905550505050565b6000806001846040518082805190602001908083835b60208310151561031f57805182526020820191506020810190506020830392506102fa565b6001836020036101000a038019825116818451168082178552505050505050905001915050908152602001604051809103902060008460ff1660ff16815260200190815260200160002060009054906101000a900460ff16905060008160ff1611151561038b57600080fd5b8091505092915050565b6000809054906101000a900473ffffffffffffffffffffffffffffffffffffffff16815600a165627a7a72305820b3297f4e6ff8886e9104c13f783df366de396689819639ba4b1104d6d3150acd0029",
  "source": "pragma solidity ^0.4.18;\n\ncontract TUMOracle {\n\n  //struct TutoringGroup {\n  //  string courseId;\n  //  uint8 groupId;\n  //}\n\n  address public owner;\n\n  // Solidity does not support floats, uint value is avg grade * 10 \n  mapping(string => mapping(uint8 => uint8)) grades;\n\n  constructor () public {\n    owner = msg.sender;\n  }\n\n  function addGrade(string courseId, uint8 groupId, uint8 grade) public {\n    require(msg.sender == owner);\n    require(grade >= 10 && grade <= 50);\n    grades[courseId][groupId] = grade;\n  }\n\n  function getGrade(string courseId, uint8 groupId) public view returns (uint8) {\n    uint8 grade = grades[courseId][groupId];\n    require(grade > 0);\n    return grade;\n  }\n\n}\n",
  "sourcePath": "/Users/jeff/uni_repos/ethereum-tutoring-tipper/contracts/TUMOracle.sol",
  "compiler": {
    "name": "solc",
    "version": "0.4.24+commit.e67f0147.Emscripten.clang"
  },
  "schemaVersion": "2.0.1",
  "updatedAt": "2018-11-25T12:32:31.726Z"
}